{
  "address": "0x2DFb2C5C013826a0728440D8036305b254Ad9cCE",
  "abi": [
    {
      "inputs": [
        {
          "internalType": "address",
          "name": "_governor",
          "type": "address"
        }
      ],
      "stateMutability": "nonpayable",
      "type": "constructor"
    },
    {
      "inputs": [],
      "name": "FeedNotFound",
      "type": "error"
    },
    {
      "inputs": [],
      "name": "ZeroAddress",
      "type": "error"
    },
    {
      "anonymous": false,
      "inputs": [
        {
          "indexed": false,
          "internalType": "address",
          "name": "_to",
          "type": "address"
        },
        {
          "indexed": false,
          "internalType": "address",
          "name": "token",
          "type": "address"
        },
        {
          "indexed": false,
          "internalType": "uint256",
          "name": "amount",
          "type": "uint256"
        }
      ],
      "name": "DustSent",
      "type": "event"
    },
    {
      "anonymous": false,
      "inputs": [
        {
          "components": [
            {
              "internalType": "address",
              "name": "base",
              "type": "address"
            },
            {
              "internalType": "address",
              "name": "quote",
              "type": "address"
            },
            {
              "internalType": "address",
              "name": "feed",
              "type": "address"
            }
          ],
          "indexed": false,
          "internalType": "struct IChainlinkRegistry.Feed[]",
          "name": "feeds",
          "type": "tuple[]"
        }
      ],
      "name": "FeedsModified",
      "type": "event"
    },
    {
      "anonymous": false,
      "inputs": [],
      "name": "PendingGovernorAccepted",
      "type": "event"
    },
    {
      "anonymous": false,
      "inputs": [
        {
          "indexed": false,
          "internalType": "address",
          "name": "_pendingGovernor",
          "type": "address"
        }
      ],
      "name": "PendingGovernorSet",
      "type": "event"
    },
    {
      "inputs": [],
      "name": "acceptPendingGovernor",
      "outputs": [],
      "stateMutability": "nonpayable",
      "type": "function"
    },
    {
      "inputs": [
        {
          "internalType": "address",
          "name": "_base",
          "type": "address"
        },
        {
          "internalType": "address",
          "name": "_quote",
          "type": "address"
        }
      ],
      "name": "decimals",
      "outputs": [
        {
          "internalType": "uint8",
          "name": "",
          "type": "uint8"
        }
      ],
      "stateMutability": "view",
      "type": "function"
    },
    {
      "inputs": [
        {
          "internalType": "address",
          "name": "_base",
          "type": "address"
        },
        {
          "internalType": "address",
          "name": "_quote",
          "type": "address"
        }
      ],
      "name": "description",
      "outputs": [
        {
          "internalType": "string",
          "name": "",
          "type": "string"
        }
      ],
      "stateMutability": "view",
      "type": "function"
    },
    {
      "inputs": [
        {
          "internalType": "address",
          "name": "_base",
          "type": "address"
        },
        {
          "internalType": "address",
          "name": "_quote",
          "type": "address"
        }
      ],
      "name": "getFeedProxy",
      "outputs": [
        {
          "internalType": "contract AggregatorV2V3Interface",
          "name": "",
          "type": "address"
        }
      ],
      "stateMutability": "view",
      "type": "function"
    },
    {
      "inputs": [],
      "name": "governor",
      "outputs": [
        {
          "internalType": "address",
          "name": "",
          "type": "address"
        }
      ],
      "stateMutability": "view",
      "type": "function"
    },
    {
      "inputs": [
        {
          "internalType": "address",
          "name": "_account",
          "type": "address"
        }
      ],
      "name": "isGovernor",
      "outputs": [
        {
          "internalType": "bool",
          "name": "_isGovernor",
          "type": "bool"
        }
      ],
      "stateMutability": "view",
      "type": "function"
    },
    {
      "inputs": [
        {
          "internalType": "address",
          "name": "_account",
          "type": "address"
        }
      ],
      "name": "isPendingGovernor",
      "outputs": [
        {
          "internalType": "bool",
          "name": "_isPendingGovernor",
          "type": "bool"
        }
      ],
      "stateMutability": "view",
      "type": "function"
    },
    {
      "inputs": [
        {
          "internalType": "address",
          "name": "_base",
          "type": "address"
        },
        {
          "internalType": "address",
          "name": "_quote",
          "type": "address"
        }
      ],
      "name": "latestRoundData",
      "outputs": [
        {
          "internalType": "uint80",
          "name": "",
          "type": "uint80"
        },
        {
          "internalType": "int256",
          "name": "",
          "type": "int256"
        },
        {
          "internalType": "uint256",
          "name": "",
          "type": "uint256"
        },
        {
          "internalType": "uint256",
          "name": "",
          "type": "uint256"
        },
        {
          "internalType": "uint80",
          "name": "",
          "type": "uint80"
        }
      ],
      "stateMutability": "view",
      "type": "function"
    },
    {
      "inputs": [],
      "name": "pendingGovernor",
      "outputs": [
        {
          "internalType": "address",
          "name": "",
          "type": "address"
        }
      ],
      "stateMutability": "view",
      "type": "function"
    },
    {
      "inputs": [
        {
          "internalType": "address",
          "name": "_to",
          "type": "address"
        },
        {
          "internalType": "address",
          "name": "_token",
          "type": "address"
        },
        {
          "internalType": "uint256",
          "name": "_amount",
          "type": "uint256"
        }
      ],
      "name": "sendDust",
      "outputs": [],
      "stateMutability": "nonpayable",
      "type": "function"
    },
    {
      "inputs": [
        {
          "components": [
            {
              "internalType": "address",
              "name": "base",
              "type": "address"
            },
            {
              "internalType": "address",
              "name": "quote",
              "type": "address"
            },
            {
              "internalType": "address",
              "name": "feed",
              "type": "address"
            }
          ],
          "internalType": "struct IChainlinkRegistry.Feed[]",
          "name": "_proxies",
          "type": "tuple[]"
        }
      ],
      "name": "setFeedProxies",
      "outputs": [],
      "stateMutability": "nonpayable",
      "type": "function"
    },
    {
      "inputs": [
        {
          "internalType": "address",
          "name": "__pendingGovernor",
          "type": "address"
        }
      ],
      "name": "setPendingGovernor",
      "outputs": [],
      "stateMutability": "nonpayable",
      "type": "function"
    },
    {
      "inputs": [
        {
          "internalType": "address",
          "name": "_base",
          "type": "address"
        },
        {
          "internalType": "address",
          "name": "_quote",
          "type": "address"
        }
      ],
      "name": "version",
      "outputs": [
        {
          "internalType": "uint256",
          "name": "",
          "type": "uint256"
        }
      ],
      "stateMutability": "view",
      "type": "function"
    }
  ],
  "transactionHash": "0xa22e42f260e712c5d1050bc456c9d18e0002b1426957377f42fbd84e46707842",
  "args": [
    "0xeeAE844d04ee45c37636D8Db8C9482200177DC93"
  ],
  "solcInputHash": "3d8ff6843711b438079b8e93de7bbc61",
  "bytecode": "0x608060405234801561001057600080fd5b506040516111fd3803806111fd83398101604081905261002f916100b0565b806001600160a01b03811661008a5760405162461bcd60e51b815260206004820152601860248201527f476f7665726e61626c653a207a65726f20616464726573730000000000000000604482015260640160405180910390fd5b600080546001600160a01b0319166001600160a01b0392909216919091179055506100e0565b6000602082840312156100c257600080fd5b81516001600160a01b03811681146100d957600080fd5b9392505050565b61110e806100ef6000396000f3fe608060405234801561001057600080fd5b50600436106100cf5760003560e01c8063b24bba5d1161008c578063e3056a3411610066578063e3056a3414610203578063e43581b814610214578063f235757f14610236578063fa820de91461024957600080fd5b8063b24bba5d14610174578063bcfd032d14610187578063df08aed5146101d157600080fd5b80630c340a24146100d457806313f6986d146100fe5780632db8c1291461010857806358e2d3a81461011b57806381d3553914610140578063af34b03a14610153575b600080fd5b6000546001600160a01b03165b6040516001600160a01b0390911681526020015b60405180910390f35b610106610269565b005b610106610116366004610cee565b6102dc565b61012e610129366004610d2a565b610316565b60405160ff90911681526020016100f5565b6100e161014e366004610d2a565b61038a565b610166610161366004610d2a565b6103d2565b6040519081526020016100f5565b610106610182366004610d5d565b61043f565b61019a610195366004610d2a565b610626565b6040805169ffffffffffffffffffff968716815260208101959095528401929092526060830152909116608082015260a0016100f5565b6101f36101df366004610dd2565b6001546001600160a01b0391821691161490565b60405190151581526020016100f5565b6001546001600160a01b03166100e1565b6101f3610222366004610dd2565b6000546001600160a01b0391821691161490565b610106610244366004610dd2565b6106ac565b61025c610257366004610d2a565b6106e2565b6040516100f59190610e1d565b6001546001600160a01b031633146102d25760405162461bcd60e51b815260206004820152602160248201527f476f7665726e61626c653a206f6e6c792070656e64696e6720676f7665726e6f6044820152603960f91b60648201526084015b60405180910390fd5b6102da610753565b565b6000546001600160a01b031633146103065760405162461bcd60e51b81526004016102c990610e50565b6103118383836107fb565b505050565b6000610322838361038a565b6001600160a01b031663313ce5676040518163ffffffff1660e01b8152600401602060405180830381865afa15801561035f573d6000803e3d6000fd5b505050506040513d601f19601f820116820180604052508101906103839190610e87565b9392505050565b6001600160a01b03808316600090815260046020908152604080832085851684529091528120549091168061038357604051637d53846960e11b815260040160405180910390fd5b60006103de838361038a565b6001600160a01b03166354fd4d506040518163ffffffff1660e01b8152600401602060405180830381865afa15801561041b573d6000803e3d6000fd5b505050506040513d601f19601f820116820180604052508101906103839190610eaa565b6000546001600160a01b031633146104695760405162461bcd60e51b81526004016102c990610e50565b60005b818110156105e857600083838381811061048857610488610ec3565b61049e9260206060909202019081019150610dd2565b6001600160a01b031614806104e5575060008383838181106104c2576104c2610ec3565b90506060020160200160208101906104da9190610dd2565b6001600160a01b0316145b156105035760405163d92e233d60e01b815260040160405180910390fd5b82828281811061051557610515610ec3565b905060600201604001602081019061052d9190610dd2565b6004600085858581811061054357610543610ec3565b6105599260206060909202019081019150610dd2565b6001600160a01b03166001600160a01b03168152602001908152602001600020600085858581811061058d5761058d610ec3565b90506060020160200160208101906105a59190610dd2565b6001600160a01b039081168252602082019290925260400160002080546001600160a01b03191692909116919091179055806105e081610ed9565b91505061046c565b507fabbfc7aa2c0e1339608013f3203c6f721dd9283a9e7f4efc3c73aed5cafa259c828260405161061a929190610f02565b60405180910390a15050565b6000806000806000610638878761038a565b6001600160a01b031663feaf968c6040518163ffffffff1660e01b815260040160a060405180830381865afa158015610675573d6000803e3d6000fd5b505050506040513d601f19601f820116820180604052508101906106999190610f92565b939b929a50909850965090945092505050565b6000546001600160a01b031633146106d65760405162461bcd60e51b81526004016102c990610e50565b6106df81610981565b50565b60606106ee838361038a565b6001600160a01b0316637284e4166040518163ffffffff1660e01b8152600401600060405180830381865afa15801561072b573d6000803e3d6000fd5b505050506040513d6000823e601f3d908101601f191682016040526103839190810190610ff8565b6001546001600160a01b03166107ab5760405162461bcd60e51b815260206004820152601f60248201527f476f7665726e61626c653a206e6f2070656e64696e6720676f7665726e6f720060448201526064016102c9565b60018054600080546001600160a01b03199081166001600160a01b0384161782559091169091556040517fdc57ca23c46d823853915ed5a090ca0ee9db5eb6a46f5c58e1c9158de861fd769190a1565b6001600160a01b0383166108515760405162461bcd60e51b815260206004820152601d60248201527f436f6c6c65637461626c65447573743a207a65726f206164647265737300000060448201526064016102c9565b61085c600283610a2b565b156108bc5760405162461bcd60e51b815260206004820152602a60248201527f436f6c6c65637461626c65447573743a20746f6b656e2069732070617274206f60448201526919881c1c9bdd1bd8dbdb60b21b60648201526084016102c9565b6001600160a01b03821673eeeeeeeeeeeeeeeeeeeeeeeeeeeeeeeeeeeeeeee141561091d576040516001600160a01b0384169082156108fc029083906000818181858888f19350505050158015610917573d6000803e3d6000fd5b50610931565b6109316001600160a01b0383168483610a4d565b604080516001600160a01b038086168252841660208201529081018290527f1e34c1aee8e83c2dcc14c21bb4bfeea7f46c0c998cb797ac7cc4d7a18f5c656b9060600160405180910390a1505050565b6001600160a01b0381166109d75760405162461bcd60e51b815260206004820152601860248201527f476f7665726e61626c653a207a65726f2061646472657373000000000000000060448201526064016102c9565b600180546001600160a01b0319166001600160a01b0383169081179091556040519081527f56bddfa0cee9697cebddf9acd7f23dc6583663b05e007b877056d05017994def9060200160405180910390a150565b6001600160a01b03811660009081526001830160205260408120541515610383565b604080516001600160a01b03848116602483015260448083018590528351808403909101815260649092018352602080830180516001600160e01b031663a9059cbb60e01b17905283518085019094528084527f5361666545524332303a206c6f772d6c6576656c2063616c6c206661696c65649084015261031192869291600091610add918516908490610b5a565b8051909150156103115780806020019051810190610afb919061109a565b6103115760405162461bcd60e51b815260206004820152602a60248201527f5361666545524332303a204552433230206f7065726174696f6e20646964206e6044820152691bdd081cdd58d8d9595960b21b60648201526084016102c9565b6060610b698484600085610b71565b949350505050565b606082471015610bd25760405162461bcd60e51b815260206004820152602660248201527f416464726573733a20696e73756666696369656e742062616c616e636520666f6044820152651c8818d85b1b60d21b60648201526084016102c9565b843b610c205760405162461bcd60e51b815260206004820152601d60248201527f416464726573733a2063616c6c20746f206e6f6e2d636f6e747261637400000060448201526064016102c9565b600080866001600160a01b03168587604051610c3c91906110bc565b60006040518083038185875af1925050503d8060008114610c79576040519150601f19603f3d011682016040523d82523d6000602084013e610c7e565b606091505b5091509150610c8e828286610c99565b979650505050505050565b60608315610ca8575081610383565b825115610cb85782518084602001fd5b8160405162461bcd60e51b81526004016102c99190610e1d565b80356001600160a01b0381168114610ce957600080fd5b919050565b600080600060608486031215610d0357600080fd5b610d0c84610cd2565b9250610d1a60208501610cd2565b9150604084013590509250925092565b60008060408385031215610d3d57600080fd5b610d4683610cd2565b9150610d5460208401610cd2565b90509250929050565b60008060208385031215610d7057600080fd5b823567ffffffffffffffff80821115610d8857600080fd5b818501915085601f830112610d9c57600080fd5b813581811115610dab57600080fd5b866020606083028501011115610dc057600080fd5b60209290920196919550909350505050565b600060208284031215610de457600080fd5b61038382610cd2565b60005b83811015610e08578181015183820152602001610df0565b83811115610e17576000848401525b50505050565b6020815260008251806020840152610e3c816040850160208701610ded565b601f01601f19169190910160400192915050565b60208082526019908201527f476f7665726e61626c653a206f6e6c7920676f7665726e6f7200000000000000604082015260600190565b600060208284031215610e9957600080fd5b815160ff8116811461038357600080fd5b600060208284031215610ebc57600080fd5b5051919050565b634e487b7160e01b600052603260045260246000fd5b6000600019821415610efb57634e487b7160e01b600052601160045260246000fd5b5060010190565b6020808252818101839052600090604080840186845b87811015610f6b576001600160a01b0380610f3284610cd2565b16845280610f41878501610cd2565b168685015280610f52868501610cd2565b1684860152506060928301929190910190600101610f18565b5090979650505050505050565b805169ffffffffffffffffffff81168114610ce957600080fd5b600080600080600060a08688031215610faa57600080fd5b610fb386610f78565b9450602086015193506040860151925060608601519150610fd660808701610f78565b90509295509295909350565b634e487b7160e01b600052604160045260246000fd5b60006020828403121561100a57600080fd5b815167ffffffffffffffff8082111561102257600080fd5b818401915084601f83011261103657600080fd5b81518181111561104857611048610fe2565b604051601f8201601f19908116603f0116810190838211818310171561107057611070610fe2565b8160405282815287602084870101111561108957600080fd5b610c8e836020830160208801610ded565b6000602082840312156110ac57600080fd5b8151801515811461038357600080fd5b600082516110ce818460208701610ded565b919091019291505056fea26469706673582212205f0a24b806049f978b9ab5593d6a57b2eb50696983ee6c95bf2c78a6bc2caff264736f6c634300080a0033",
  "devdoc": {
    "kind": "dev",
    "methods": {
      "decimals(address,address)": {
        "details": "Will revert with `FeedNotFound` if no feed is found for the given base and quote",
        "params": {
          "_base": "The base asset address",
          "_quote": "The quote asset address"
        },
        "returns": {
          "_0": "The number of decimals in the response"
        }
      },
      "description(address,address)": {
        "details": "Will revert with `FeedNotFound` if no feed is found for the given base and quote",
        "params": {
          "_base": "The base asset address",
          "_quote": "The quote asset address"
        },
        "returns": {
          "_0": "The description of the underlying aggregator"
        }
      },
      "getFeedProxy(address,address)": {
        "details": "Will revert with `FeedNotFound` if no feed is found for the given base and quote",
        "params": {
          "_base": "The base asset address",
          "_quote": "The quote asset address"
        },
        "returns": {
          "_0": "The feed's address"
        }
      },
      "latestRoundData(address,address)": {
        "details": "Will revert with `FeedNotFound` if no feed is found for the given base and quote",
        "params": {
          "_base": "The base asset address",
          "_quote": "The quote asset address"
        },
        "returns": {
          "_0": "The round ID",
          "_1": "The price",
          "_2": "Timestamp of when the round started",
          "_3": "Timestamp of when the round was updated",
          "_4": "The round ID of the round in which the answer was computed"
        }
      },
      "setFeedProxies((address,address,address)[])": {
        "details": "A feed's address could be set to the zero address to delete a feed",
        "params": {
          "_feeds": "The feeds to set"
        }
      },
      "version(address,address)": {
        "details": "Will revert with `FeedNotFound` if no feed is found for the given base and quote",
        "params": {
          "_base": "The base asset address",
          "_quote": "The quote asset address"
        },
        "returns": {
          "_0": "The version of the type of aggregator"
        }
      }
    },
    "version": 1
  },
  "userdoc": {
    "errors": {
      "FeedNotFound()": [
        {
          "notice": "Thrown when trying to execute a call with a base and quote that don't have a feed assigned"
        }
      ],
      "ZeroAddress()": [
        {
          "notice": "Thrown when one of the parameters is a zero address"
        }
      ]
    },
    "events": {
      "FeedsModified((address,address,address)[])": {
        "notice": "Emitted when fees are modified"
      }
    },
    "kind": "user",
    "methods": {
      "decimals(address,address)": {
        "notice": "Returns the number of decimals present in the response value."
      },
      "description(address,address)": {
        "notice": "Returns the description of the underlying aggregator that the proxy points to."
      },
      "getFeedProxy(address,address)": {
        "notice": "Returns the proxy feed for a specific quote and base"
      },
      "latestRoundData(address,address)": {
        "notice": "Returns the version representing the type of aggregator the proxy points to."
      },
      "setFeedProxies((address,address,address)[])": {
        "notice": "Sets or deletes feeds for specific quotes and bases"
      },
      "version(address,address)": {
        "notice": "Returns the version representing the type of aggregator the proxy points to."
      }
    },
    "version": 1
  },
  "storageLayout": {
    "storage": [
      {
        "astId": 2518,
        "contract": "contracts/ChainlinkRegistry/ChainlinkRegistry.sol:ChainlinkRegistry",
        "label": "_governor",
        "offset": 0,
        "slot": "0",
        "type": "t_address"
      },
      {
        "astId": 2520,
        "contract": "contracts/ChainlinkRegistry/ChainlinkRegistry.sol:ChainlinkRegistry",
        "label": "_pendingGovernor",
        "offset": 0,
        "slot": "1",
        "type": "t_address"
      },
      {
        "astId": 2412,
        "contract": "contracts/ChainlinkRegistry/ChainlinkRegistry.sol:ChainlinkRegistry",
        "label": "_protocolTokens",
        "offset": 0,
        "slot": "2",
        "type": "t_struct(AddressSet)1606_storage"
      },
      {
        "astId": 1910,
        "contract": "contracts/ChainlinkRegistry/ChainlinkRegistry.sol:ChainlinkRegistry",
        "label": "_feeds",
        "offset": 0,
        "slot": "4",
        "type": "t_mapping(t_address,t_mapping(t_address,t_address))"
      }
    ],
    "types": {
      "t_address": {
        "encoding": "inplace",
        "label": "address",
        "numberOfBytes": "20"
      },
      "t_array(t_bytes32)dyn_storage": {
        "base": "t_bytes32",
        "encoding": "dynamic_array",
        "label": "bytes32[]",
        "numberOfBytes": "32"
      },
      "t_bytes32": {
        "encoding": "inplace",
        "label": "bytes32",
        "numberOfBytes": "32"
      },
      "t_mapping(t_address,t_address)": {
        "encoding": "mapping",
        "key": "t_address",
        "label": "mapping(address => address)",
        "numberOfBytes": "32",
        "value": "t_address"
      },
      "t_mapping(t_address,t_mapping(t_address,t_address))": {
        "encoding": "mapping",
        "key": "t_address",
        "label": "mapping(address => mapping(address => address))",
        "numberOfBytes": "32",
        "value": "t_mapping(t_address,t_address)"
      },
      "t_mapping(t_bytes32,t_uint256)": {
        "encoding": "mapping",
        "key": "t_bytes32",
        "label": "mapping(bytes32 => uint256)",
        "numberOfBytes": "32",
        "value": "t_uint256"
      },
      "t_struct(AddressSet)1606_storage": {
        "encoding": "inplace",
        "label": "struct EnumerableSet.AddressSet",
        "members": [
          {
            "astId": 1605,
            "contract": "contracts/ChainlinkRegistry/ChainlinkRegistry.sol:ChainlinkRegistry",
            "label": "_inner",
            "offset": 0,
            "slot": "0",
            "type": "t_struct(Set)1305_storage"
          }
        ],
        "numberOfBytes": "64"
      },
      "t_struct(Set)1305_storage": {
        "encoding": "inplace",
        "label": "struct EnumerableSet.Set",
        "members": [
          {
            "astId": 1300,
            "contract": "contracts/ChainlinkRegistry/ChainlinkRegistry.sol:ChainlinkRegistry",
            "label": "_values",
            "offset": 0,
            "slot": "0",
            "type": "t_array(t_bytes32)dyn_storage"
          },
          {
            "astId": 1304,
            "contract": "contracts/ChainlinkRegistry/ChainlinkRegistry.sol:ChainlinkRegistry",
            "label": "_indexes",
            "offset": 0,
            "slot": "1",
            "type": "t_mapping(t_bytes32,t_uint256)"
          }
        ],
        "numberOfBytes": "64"
      },
      "t_uint256": {
        "encoding": "inplace",
        "label": "uint256",
        "numberOfBytes": "32"
      }
    }
  }
}